:020000041000EA
:1000000000B5324B212058609868022188439860DF
:10001000D860186158612E4B002199600221596106
:100020000121F02299502B49196001219960352056
:1000300000F044F80222904214D00621196600F024
:1000400034F8196E01211966002018661A6600F04E
:100050002CF8196E196E196E052000F02FF8012189
:100060000842F9D1002199601B49196000215960AB
:100070001A491B48016001219960EB211966A021F2
:10008000196600F012F800219960164914480160C1
:100090000121996001BC002800D000471248134993
:1000A000086003C880F30888084703B5996A0420EC
:1000B0000142FBD001200142F8D103BD02B5186610
:1000C0001866FFF7F2FF186E186E02BD00000240BE
:1000D000000000180000070000035F00212200005C
:1000E000F4000018222000A00001001008ED00E03C
:1000F00000000000000000000000000074B24E7A12
:1001000000200420F7010010CB010010CD010010E9
:10011000C9010010C9010010C9010010C901001077
:10012000C9010010C9010010C9010010CF01001061
:10013000C9010010C9010010D1010010D301001045
:10014000C1010010C1010010C1010010C101001067
:10015000C1010010C1010010C1010010C101001057
:10016000C1010010C1010010C1010010C101001047
:10017000C1010010C1010010C1010010C101001037
:10018000C1010010C1010010C1010010C101001027
:10019000C1010010C1010010C1010010C101001017
:1001A000C1010010C1010010C1010010C101001007
:1001B000C1010010C1010010C1010010C1010010F7
:1001C000EFF30580103800BE00BE00BE00BE00BECA
:1001D00000BE00BEF2EB8871AC4A0010CC4A0010A1
:1001E0003802001090A31AE71E481F49086006C88D
:1001F00081F3088810471D480068002801D019487D
:10020000F3E70DA40ECC002902D000F012F8F9E7B4
:100210001749184A002000E001C19142FCD116495B
:100220008847164988471649884700BEFDE701C937
:1002300001C29A42FBD37047CC4A0010C000002094
:10024000F0100020FC5A00100000042000000420E0
:10025000FC5A0010001004200010042000000000D0
:10026000704700000000000008ED00E0000000D032
:10027000F0100020F01F0020591A00102103001078
:10028000511A0010F8B5C0460448054B10B583421A
:1002900003D0044B002B00D0984710BDF010002075
:1002A000F01000200000000006480749091A8B10D2
:1002B000C90FC91810B5491003D0044B002B00D04A
:1002C000984710BDF0100020F01000200000000042
:1002D00010B5074C2378002B09D1FFF7D5FF054B4C
:1002E000002B02D0044800E000BF0123237010BDA2
:1002F00078130020000000007C460010054B10B56C
:10030000002B03D00449054800E000BFFFF7CCFFF5
:1003100010BDC046000000007C1300207C46001089
:1003200070B501F0A9FCD024002000F00FF80123E3
:10033000012524066362FA206561800000F082FED8
:10034000FA20A561800000F07DFEF4E70123D022B1
:1003500083404021120693629361094A83009A18F0
:100360001268C0005140C0220A4006498C466344CE
:100370001A60054B9C460523604443607047C046A5
:1003800004C0014004D00140004001408023DB054F
:100390001868000F7047C0460FB400B5084883B016
:1003A00001F0BAFC049B002B07D005A918000191AD
:1003B00001F034FB034801F0AFFC012001F046FBE3
:1003C0007C4600108C46001070B5EFF3108C72B6AE
:1003D0000D4D2B68002BFCD0BFF35F8F0724CB089B
:1003E000C618C05C01230C40A3401C00044003421B
:1003F00007D103433370BFF35F8F2C608CF31088F9
:1004000070BD1000FFF7C8FF2C0100D0F8B54746BB
:10041000CE46884680B5EFF3108C72B6214D2C681D
:10042000002CFCD0BFF35F8F9A422CD8D40807274A
:10043000055D061901241740BC402C421FD007213E
:100440000127894609E0D408055D06194C463900A4
:100450001440A1400C00294211D001329342F2D243
:1004600001204042BFF35F8F00220E4B1A608CF3D5
:10047000108800280FDBC0BCB946B046F8BD2C433D
:1004800010003470EEE7BFF35F8F00232B608CF316
:100490001088012040424346002BECD00898FFF71B
:1004A0007BFFC0462C0100D0044A1078431CDBB20D
:1004B000172B00D9102313707047C046201000205E
:1004C00000B5054B83B00100009318221F23034899
:1004D000FFF79CFF03B000BD90460010341A0020C7
:1004E0000021044B044ABFF35F8F02C39342FAD149
:1004F0007047C046000100D0800100D0054B064A7D
:100500001360064A136053609360D36013615361B4
:10051000936170478080808000E400E004E400E0A4
:100520001F2318401E3B8340002905D0C021044AE8
:100530004900535013607047802201498B50FAE7FD
:1005400000E100E001228240034B1B6813405A1E69
:100550009341D8B27047C04600E100E001238340D8
:10056000014A13607047C04600E200E0064B1030BD
:100570009B688000C358054A00209B1A2F229A428C
:100580004041C0B27047C04600ED00E0241000209A
:1005900070B50D00EFF3108672B60F4A1368002B8A
:1005A000FCD0BFF35F8F0D4B10309B6884001B594C
:1005B0000B4A934203D09D4201D000F0FBFF074B52
:1005C0009B681D51BFF35F8FBFF35F8F0022024B0B
:1005D0001A6086F3108870BD240100D000ED00E0A1
:1005E000C1010010F0B557464E46DE464546E0B51F
:1005F00085B0060002911700EFF3108B72B6674AC0
:100600001368002BFCD0BFF35F8F0025644B5D5750
:100610009A46002D00DAA4E06B00624C03935B194C
:100620009B009846A146C1444B4652469B791036E2
:1006300013705D4BB2009B68019299580B1B2F2BD6
:1006400034D95A4B994200D0A4E0039B584A9C46A7
:10065000584B6544AD006353434602336519E418B3
:10066000554B0121043B1B1B1B055B0D13436B808A
:10067000524BEF71AB80FF23AB71029BAB604B46DB
:100680000B431900484B019A9B689950BFF35F8F49
:10069000BFF35F8F0022414B1A608BF3108805B0C7
:1006A000F0BCBB46B246A946A046F0BD01200A00F8
:1006B0008243D379BB422FD845464E46130040496A
:1006C0001B1B5B415943090D3A4B63533A4B0235AF
:1006D0006519043B5B1B1B05354D5B0D2B4373807C
:1006E0000426B446E0444444131F1B1B4C46A1712E
:1006F00002991B05A16049465B0D2B43A380314B3A
:10070000E77101431360BDE75800C018800020184E
:10071000C679BE422BD902000623D356002BF3DA4A
:10072000101D82462848804604267642B446E1449D
:1007300050464E46361A3005400D824656461C48F5
:10074000957106439680039A944665441D4AAD0010
:10075000641922604246A371029BA280E771A360E4
:1007600090E700F027FF002553465D5754E7101D22
:10077000824690884005001584464046D44466462B
:1007800004302018301AE0260005400D36023043B0
:100790008046C9E700F00EFF57E7C046240100D0AD
:1007A000E91F00202410002000ED00E0C10100102E
:1007B00000E0FFFF00A1FFFF5410002001BDFFFF7C
:1007C000AAAA00000148804701BD000070B50124BD
:1007D0000443EFF30581EFF3108C72B6214A1368DE
:1007E000002BFCD0BFF35F8F1F4B05001F4AED1A93
:1007F0006D416A43120D1E4D8900AE6852B27658A3
:10080000A6421CD00621595691421CD0122159569D
:10081000914222D01E215956914220D02A21595668
:100820000324914210D0134B19781A708171BFF3D1
:100830005F8F00220B4B1A608CF3108870BDAB6881
:100840000D4C5C50EFE700246100091989005B182A
:10085000FF21997109499980E5E70124F4E7022411
:10086000F2E7C046240100D024100020AAAA00000C
:1008700000ED00E0E91F0020C101001001BDFFFFF5
:1008800000B5074B83B00100009300220523054803
:10089000FFF7BCFD002801DB1F23181A03B000BDC1
:1008A000AC460010ED1F0020024B9C4661448900BD
:1008B0000160704740000034F8B5134D134E2C0012
:1008C000FF27B5421ED22368002B0FD0FFF7ECFDA7
:1008D00001002800FFF7E8FFA780BFF35F8F08340F
:1008E000B4420FD223682500002BEFD1FFF7DCFDC7
:1008F00001002800FFF7D8FF2771BFF35F8F08348E
:10090000B442EFD3F8BDC046E8100020F01000203C
:1009100010B50400FFF7C8FD01002000FFF7C4FF79
:10092000FF232371BFF35F8F10BDC04610B50400D5
:100930000120FFF7C5FD044B9C4660448000206009
:10094000BFF35F8F10BDC04640000034034B9C4690
:10095000614489000160BFF35F8F7047400000343D
:100960000A4B1968EFF3108072B60A68002AFCD0AF
:10097000BFF35F8F1B68BFF35F8F00221A6080F3A5
:10098000108840BF002000217047C046C81F0020CB
:10099000F0B5DE4657464E464546E0B585B0EFF326
:1009A0000582032313409A0011000392B64A52585D
:1009B000904601229A409146B44B1A604B46B44887
:1009C0004363434608229B5E9A46002B3DDA43462A
:1009D0009B881BB2002B00DBA1E043469B79002BD8
:1009E00000D0F3E0434608241C5F002C23DB424682
:1009F0005269630094461B19DB0063449C68DD6800
:100A0000631C00D10FE1A248039984466144826AC5
:100A10000B69A61A9B1A9E4215D34A46036A1A42CC
:100A200011D09B4800F0B0FB241A8D41002D02DC50
:100A3000C4D1002CC2D040BF05B0F0BCBB46B2460A
:100A4000A946A046F0BD0C61EBE7424652695B0047
:100A500093465344DB009B445B469E68DF6800F08E
:100A600093FB801BB9410029B1DB002F00DAE5E0E0
:100A70005B46884A1B69934200D1D8E041465A46FA
:100A80000820085E5288000410435A46516998476E
:100A900004000D0023002B4300D1CFE0002D00DB2C
:100AA000E8E0361BAF4134003D005B469C60DD60F2
:100AB0000021595E002900DA89E743465B6922007C
:100AC0009C462B0048004018C00060448668C768F8
:100AD000921BBB41002B00DA79E7434666460200D1
:100AE0000094019519810CE07B00DB19DB00F31801
:100AF000009801999C68DD68001BA941002904DB6E
:100B00001A000023D75E002FEEDA5B461F805346A3
:100B1000138043469B881BB2002B00DA5DE74346F7
:100B20001A69EFF3108172B61368002BFCD0BFF383
:100B30005F8F43469B8842461BB29A4601235B4225
:100B400093801369BFF35F8F00221A6081F31088CE
:100B50005346002B00DA40E743465B699C46082376
:100B600043449B4653465F0043465744FF000822D8
:100B70009A5E67445E46BC68FD68002A19DB3B004C
:100B80000094019567469C4604E01E000023F25E37
:100B9000002A0BDB0098019953009B18DB00FB181F
:100BA0009C68DD68001BA9410029EEDA6346BC465B
:100BB0001F005346338000217B5E3A809A46002B0B
:100BC000D0DA43469B79002B00D10BE70023424645
:100BD0009371434646460821595E08364B1C00D1A6
:100BE00029E747468C46556902E006004B1C17D0A2
:100BF0004B005B18DB00E8180A00E95E43881BB273
:100C0000002BF2DA01235B42DC178360C46062458B
:100C1000ECD031803B89944603803A814B1CE7D16C
:100C2000B8466446E1E66B1C00D0ECE6F9E65B46AC
:100C30005C69200023699847002821D15B46424621
:100C40001B8813811269EFF3108372B611680029B3
:100C5000FCD0BFF35F8F4246594652880A80424615
:100C6000514651801269BFF35F8F0021116083F3F9
:100C70001088ACE6064800F087FA24184D4114E7C6
:100C80006568246806E7C046AC1E00203C7005403D
:100C9000004005409109001070B52E4C2569002DCB
:100CA00004D00A212C48FFF7FFFD70BD2B4E032115
:100CB000300000F05FFAE660FFF7F6FB284B0322F6
:100CC0009C46D02322701B061B6801216370254BB4
:100CD0006044A3600F238000206102206380636969
:100CE0004942A18019800231198647311D8358522B
:100CF00018315A5275325C39995218320131995271
:100D0000183201319952183201319952083518328E
:100D10009D520231183299521832013199521832CB
:100D200001319952183201319952183201319952D8
:100D30001832013199520C4B0C49DC60013035629C
:100D4000FFF726FC01210320FFF7EAFB084B1D609B
:100D5000A7E7C0466C100020C81F002000400540D7
:100D600040000034FFFF1000AC1E0020910900106D
:100D700038600540004870476C100020F8B51F002F
:100D800008AB1B7804001600002B07D100F004FA12
:100D900032003B00121A8B41002B4CDB2269EFF32F
:100DA000108072B61368002BFCD0BFF35F8F6269AE
:100DB0000223E15E94464B005B18DB00634400298C
:100DC00001DB1A8862802269BFF35F8F00251560FE
:100DD00080F31088002930DB069A9E60DF601A617C
:100DE000079A5A615A8801325204520C161C002A82
:100DF0001FD0B0B20A045E8010432669EFF310855D
:100E000072B63268002AFCD0BFF35F8FA2881A80C6
:100E1000A1802369BFF35F8F00221A6085F31088D9
:100E2000074923788C4601329A40E36863441A608C
:100E3000F8BD0126DDE70020FAE701204042F7E790
:100E40003C20000070B5C646010000B50469EFF310
:100E5000108C72B620680028FCD0BFF35F8F022090
:100E60000D5E48696C0080466419E4004444002D1E
:100E700001DB208848800869BFF35F8F0026066089
:100E80008CF31088002D30DBE36063880598013314
:100E900020615B0406985B0CA26060611A1C002B49
:100EA00021D090B22B04628018430A69EFF31086B8
:100EB00072B61368002BFCD0BFF35F8F8B88238042
:100EC0008D800B69BFF35F8F00221A6086F3108854
:100ED0000B7801329A40CB6805498C4663441A600E
:100EE00040BCB04670BD0122DBE701204042F7E77D
:100EF0003C20000010B543890A14934233DD5300AF
:100F00009B184269DB00944604696344EFF3108C3C
:100F100072B62268002AFCD0BFF35F8F5A8809049A
:100F200094B2090C8A4208D00369BFF35F8F002294
:100F30001A608CF31088002010BD80221202144326
:100F40005C80012302698371BFF35F8F0021116010
:100F50008CF31088054902788C469340C2680120C2
:100F600062441360E8E70020E6E7C0463C2000004A
:100F700040787047F0B504000D0006267642F7175A
:100F8000C64636196F4100B582B08F4214D811D0D1
:100F900000F002F932003B00121A8B41002B15DCE5
:100FA000002B44D02000290000F000F902B080BCE2
:100FB000B846F0BD8642EBD90026002700F0ECF8D9
:100FC00032003B00121A8B41002BE9DD00F0E4F8FF
:100FD00032003B00121A8B41002B0ADB00230193E5
:100FE000144B3200009314483B00FFF72BFF0028FE
:100FF000D8DBB0460026BC46104A114F7B6A9C45A0
:1010000004D8B96A8845CDD99C45CBD11168EFF396
:10101000108072B60B68002BFCD0BFF35F8F136893
:10102000BFF35F8F1E6080F3108820BFE6E7002AC1
:10103000B8D0CBE7610900106C100020C81F002059
:101040000040054070B5060000F0A6F8FA22040042
:101050000D00002330000021920000F075FC001903
:101060006941002902DBFFF785FF70BD01200149BE
:101070004042F8E7FFFFFF7FF0B5CE46474680B518
:1010800004000D0083B0EFF30587002F0DD0364A22
:101090000020536A8B4203D3926A0130A24250D39C
:1010A00003B0C0BCB946B046F0BD304B9846DB68D3
:1010B0009946434648461E7800F066F80B004946BC
:1010C00002000436B600715820008E1A2900801ADA
:1010D00099418F4211DC0ED020BF234A0020536A71
:1010E000AB42DDD3926A0130A242D9D2E81A421E45
:1010F0009041C0B2D4E78642EED900F04DF822000C
:101100002B00121A8B41002B20DB00230193184B7C
:101110002200009340462B00FFF794FE011E15DDD0
:10112000114B2E005A6A95421CD89B6AA34217D3D2
:101130004046FFF7DFFE0C4A0020536A9E42AFD8BC
:10114000D0E7581A421E9041C0B2A9E7064A0020D3
:10115000536AAB42A4D3926A0120A242A0D2C5E74F
:101160009542E5D120BFE3E7004005406C10002028
:101170006109001010B5024A0248FFF725F910BDB9
:10118000C8460010381A00200300416A0A00986A15
:10119000596A8A42FAD17047034B596A0A00986A21
:1011A000596A9142FAD1704700400540064A536A95
:1011B0009942FCD807D1044B02E05A6A914202D10D
:1011C0009A6A8242F9D3704700400540F8B5DE467E
:1011D0004E4657464546E0B58B4605000A9918002D
:1011E000160000F01DFB0A9B6C001F02324B6419B5
:1011F0009C46A4006444636881469F4200D96760AE
:101200002B1FDBB29846012B30D9C02380229B01D3
:10121000E31812011A60294BAD0059599A4600296A
:101220001BD1226876017240E02680231640424698
:101230005B01E3181E60012A30D9802380229B01C4
:10124000E31812011A6053464A4667605A51F0BCCF
:10125000BB46B246A946A046F8BD586900F0E0FA80
:10126000431C5800C0180338FDD2DAE75B46012B57
:10127000CBD1C02303229B01E3181A60023AA36872
:101280001A42FCD0E0232268760156401E4080239B
:101290000A4A5B019246E3181E60AD005A46216877
:1012A000514003220A401A6001225B469A40A3681B
:1012B0001A42FCD0C1E7C046008000403C1A002022
:1012C000F0B546464F46D646C0B51F00344B4400E5
:1012D0009C462418A4006444636888461600FF2BCB
:1012E00002D880235B006360031FDBB29A46012BA8
:1012F00030D9C02380229B01E31812011A60294BC8
:1013000085005959994600291BD1226876017240FF
:10131000E0268023164052465B01E3181E60012A36
:1013200030D9802380229B01E31812011A608023A8
:101330005B0063604B465F51E0BCBA46B146A846CD
:10134000F0BD586900F06CFA431C5800C01803380F
:10135000FDD2DAE74346012BCBD1C02303229B0108
:10136000E3181A60023AA3681A42FCD0E02322680C
:10137000760156401E4080230A4A5B019146E318DD
:101380001E60850042462168514003220A401A60CF
:10139000012342469340A2681342FCD0C1E7C046F5
:1013A000008000403C1A0020014B8000C05870476C
:1013B0003C1A0020F8B5040020481D0017000E005C
:1013C00000F02EFA0100380000F02AFA069B2904EA
:1013D0001B0319432368002B1EDB194B194DE21820
:1013E00053425A4180235B019C461203164B6244D0
:1013F0001A60164B1A6017002B689F43FBD1144BE1
:101400002660E2182123A06013602368002BFCDA19
:101410000823E1601360F8BD3F2322681340B34204
:10142000DBD1A3681B051B0D8342D6D1EE22E368F6
:10143000D20213408B42D0D1EDE7C046001BB7006B
:101440000040FDBF08C0004000E0004000F0004048
:101450000430000010B5140080221B4BD2051A6026
:1014600000281AD00123194A1843194BDA61194A86
:1014700042401A62596298628022134BD2051A6068
:101480001549164A1160E022D2041A60002C07D1D7
:101490008022134B12061A6010BD0D4BD861EBE78A
:1014A00063011B1B9A008023121912015B049A42EC
:1014B00000D30C4A0C4B1A60054B5A608022084B33
:1014C000D2051A60E8E7C04600B00540D3C007B0B7
:1014D000008005402D3FF84FFCFF0100082001402F
:1014E00000A00540FFFFFF009C1E00208023024A51
:1014F0009B000B43D362704700800540142310B556
:101500000100188804331B88984710BD162310B5B6
:101510000100188802331B88984710BDF8B547466C
:10152000CE4680B50F1E19D014239946043304000B
:101530000025012698464B461888434621681B889B
:10154000984701C4431E9841013540420640AF42CE
:10155000F1D13000C0BCB946B046F8BD0126F8E76D
:10156000142370B50400188804331B880D00054946
:10157000984703000020002C01DB0130A040290027
:101580009847C04655420000AA23064A1B01136033
:101590008D235B00D3600449044B19605368002B12
:1015A000FCDA70470040024000B0FA0000600240E0
:1015B0007047C04610B50148FEF7EEFEEC4600103D
:1015C00070B5074D074EB54209D20024013E761B87
:1015D000B60808CD984723000134B342F9D170BD55
:1015E0003846001074460010054B064A06491A603A
:1015F000064A074B1A6010000B689843FBD17047EE
:1016000000E00040BFCDFBFE08C00040FE7F3C0074
:1016100000F00040044BDB6C002B03D18022034B15
:10162000D2021A607047C046000011504C20115081
:10163000044A054B1A60054A1368DB018033FBD16D
:101640007047C046FFFFFF0100F0004008C00040A7
:101650004022034B9A675A671A67DA667047C0469A
:1016600000F0014010B5FEF73BFF10BDF8B52D4965
:101670002D4C2E4D641AA6103200302E00D9302287
:101680002800920000F0BCF9BC2C41D80123711C49
:1016900008009C46264A30293DD92F272C1964077B
:1016A000E30FBF1B052F19D9302917D8002B36D0CF
:1016B000B1006A506146CC1AF3189B006108EB1820
:1016C000C900C9181A605A6008338B42FAD1012345
:1016D0002100994346188C421AD0711CB300EA507D
:1016E000302915D089006A50B31C2E2E10D09B00D3
:1016F000EA50F31C2D2E0BD09B00EA50331D2C2EEC
:1017000006D09B00EA50731D2B2E01D09B00EA509F
:10171000084B9D60F8BD2F339B1B9C46BDE73000F6
:10172000C8E7C04600010010C00100100000002002
:10173000C101001000ED00E0002310B5294C82B07B
:10174000A367FFF721FF0122274B1A60636C012B6F
:10175000FCD10322254B1A60224A936B012BFCD14A
:10176000013300930121224A22480433FFF722FE6D
:10177000052301210093204A2048FFF71BFE002289
:10178000022104201E4BFFF79BFD002201210520B2
:101790001C4BFFF795FD0022002107201A4BFFF795
:1017A0008FFD002200210820174BFFF789FD8023C1
:1017B000DB000093002200210920134BFFF706FDF8
:1017C0000022104B00210620FFF77AFD0420FFF7CE
:1017D000EBFD0E4900F024F801000020FFF786FE23
:1017E00002B010BD008000403CB0004030B000406E
:1017F000002F685900800240008C864700C00240DC
:10180000001BB70040597307006CDC0240420F0018
:1018100001480421014B1847901000201D150010AD
:10182000114A936F9B0813D210665166002905D0A8
:10183000FFE7FFE7FFE7516F106F704704B500281F
:1018400001D00020C04302F0B7FE002104BDC04615
:10185000F0B5146E556E576F166FFFF7E5FF1466FF
:10186000556657671667F0BD000000D010B50148F7
:10187000FEF792FDF8460010132370B51D78012D78
:1018800015D039DD1E48FFF741FE06001D48FFF761
:101890003DFE1D4C80223100200000F0B1F8022DE9
:1018A00027D01A48FFF72AFE194B186070BD194B54
:1018B000154C23606360A360E36023616361A361EF
:1018C000E36123626362A362E36223636363A363EE
:1018D000E36323646364A364E36423656365A365CE
:1018E000E36523666366A366E36623676367A367AE
:1018F000E367094BA364D4E7034C074BA364D0E729
:101900005344000053460000781200204C3300007E
:10191000C41E00206D1800101D19001007B5604688
:1019200001880A0A0230DF2AFAD1C9B2820804D338
:10193000028840880004104300E00068014A5050CB
:10194000039007BD7812002051434343C9188C46C9
:10195000110C83B24B4310B4040C614392B280B2B9
:10196000504362431C041B0C001910BC5941130462
:10197000120CC018514161447047000010B5014875
:10198000FEF70AFD48470010132310B510481C78D5
:10199000FFF7BCFD0100012C0AD003DD80220D48B9
:1019A00000F02EF80C48FFF7A9FD0C4B186010BD95
:1019B000084C5422200000F023F82300084A80330A
:1019C0002168002900D122600434A342F8D1E9E75C
:1019D00053460000C81E00204C330000C41E0020E7
:1019E0007D19001001480421014B1847A010002068
:1019F0001D150010014B1B6818470000A0100020A7
:101A0000014B5B6818470000A010002010B50028AB
:101A100000D110BD00F034F9FBE7C04610B5094A0B
:101A20000300146884B0002C08D0012200910648FD
:101A3000524203A9A047012004B010BD00F06CF988
:101A40000020F9E7981E00200D1A001000BEFDE7E7
:101A500010B5FFF7FBFFC04670B5FFF7B1FD074DAE
:101A6000074EB54209D20024013E761BB60808CDC8
:101A7000984723000134B342F9D170BD7446001079
:101A80007C460010030010B5080011001B68984741
:101A900010BDC046F0B546464F46D646C0B5437D5C
:101AA00080460E001700002B46D0002A3FDD4B1E5B
:101AB0009946244B0125002400209A460DE04B4610
:101AC0001B5D0D3B5A425341325DDBB20A2A0BD0FB
:101AD0002B00013401359F421ADD002CEFD1434623
:101AE000325D1B7D0A2AF3D1002BF1D1A04204DA2A
:101AF0004346211A1B6830189847434650461B68D6
:101B000002219847013428002B0001359F42E4DC74
:101B1000874204DD4346391A1B6830189847F61986
:101B2000013E33780D3B5A42534142461375E0BCA7
:101B3000BA46B146A846F0BD036811003000984788
:101B4000F5E7C046AC470010F0B5DE4657464E46B6
:101B50004546E0B585B017001C0006000D00FFF7F4
:101B60001BFB0023314A12184B41002B59DB304933
:101B700008008A4602F038FD01906B1C03D130004A
:101B800002F0CAFC0500002C26D12A4B98462A4BAD
:101B90001C68002C15D0002F21D1284F02E02469A9
:101BA000002C0ED02368002BF9D03B68002B01D00D
:101BB000A342F4D120002A003100C0472469002C40
:101BC000F0D1019B002B28D1280005B0F0BCBB460A
:101BD000B246A946A046F0BD194B9846D7E7174B29
:101BE000994602ABDF1D0A239B4602E02469002CC4
:101BF000E7D02368002BF9D04B461B68002B01D09F
:101C0000A342F3D12A0031002000C0475B460122E5
:101C1000390020003B70C047E8E7504602F0BCFCAA
:101C2000D2E70122074B5242A1E7C04640420F00D3
:101C3000E8100020851A00108C1A0020941A002049
:101C4000951A0010FFFFFF7F0A4A1368002B05D189
:101C50000CE01A001B691032002B07D09842F8D113
:101C6000002902D103691360016170470029FCD08B
:101C70001060FAE78C1A002010B500F08BFA10BD46
:101C8000F0B5CE46474680B583B06B460600DD1DF5
:101C90002870FFF781FA00231A4A12184B41002BD3
:101CA0002BDB19490800884602F09EFC174B814641
:101CB0001C68002C14D0164F02E02469002C0FD0B1
:101CC0002368002BF9D03B68002B01D0A342F4D14C
:101CD000200001222900FFF7DDFE2469002CEFD14E
:101CE0004B46002B05D1300003B0C0BCB946B0460E
:101CF000F0BD404602F050FCF5E70122054B524290
:101D0000CFE7C04640420F00E81000208C1A0020A8
:101D1000941A0020FFFFFF7F70B5040002F0FCFB67
:101D200001230100050001222000FFF70DFF084BF1
:101D30001C68002C06D06368002B05D098472469E6
:101D4000002CF8D1280070BD2469002CF3D1F9E7EC
:101D50008C1A00207047C0460022014B1A70704751
:101D6000EA1F00204B790020FF2B0BD18B79002B31
:101D700008D1CB79012B05D1082A03D98A78024BE7
:101D800009301A707047C046EA1F002001207047D2
:101D900010B5012909D115495379107909781B0229
:101DA00003430020994202D010BD0120FCE7537884
:101DB000012B08D0022BF7D1002064220021FFF76D
:101DC00049FB0120F0E7D37891781B021943DB052A
:101DD00007D54A0A100001231A407E331940FFF745
:101DE000BFFB01204A0A4042F5E7C046EA1F002037
:101DF00000487047D047001070B50500140001205E
:101E0000012909D153780020012B05D1637912797A
:101E10001B021343072B00D070BD21002800024A8B
:101E20009F3301F061FAF7E7F447001001230370D4
:101E300000487047B047001048780B788A78000255
:101E40001843120410439622CB7810B51B060343A7
:101E5000D200934200D010BD002201201100404268
:101E6000FFF77EFB024B1860024B19607047C046BB
:101E70002C1A0020301A002010B5024B1878FEF7FB
:101E80006DFB10BDEB1F0020154B70B51A68002AC2
:101E900022D0EFF3108172B610680028FCD0BFF397
:101EA0005F8F00220F48596002701B68BFF35F8F7D
:101EB0001A6081F31088002400250B4E3078FEF75D
:101EC00041FB002804D1002400252900200070BD1A
:101ED0003078FEF743FBF8E7FA240025A400ECE78E
:101EE000A41E0020EC1F0020EB1F002070B5040092
:101EF00000200E0001F022FB002835D0002001F068
:101F000033FB002830D0FFF747F90023184A121896
:101F10004B41002B24DB174D280002F065FB002805
:101F200022D0002001F00AFB00280BD10120002163
:101F30000324404200F00AFD6442280002F02CFB1A
:101F4000200070BD002001F00FFB0028EED0210022
:101F50003200002001F014FB041EEED1033CECE73C
:101F60000122054B5242D6E703246442E8E7C0460B
:101F700040420F00CC1F0020FFFFFF7F10B5FFF78E
:101F80000BF900230E4A12184B41002B13DB0D4CAA
:101F9000200002F029FB00280CD001200021404243
:101FA00000F0D4FC002001F035FB0028F5D1200022
:101FB00002F0F2FA10BD0122034B5242E7E7C0469D
:101FC00040420F00CC1F0020FFFFFF7FF8B5DE4628
:101FD000574680B505000C00FFF7DEF80023364AAF
:101FE00012184B41002B5ADB344908008A4602F094
:101FF000FBFA002803D1C0BCBB46B246F8BD0020A6
:1020000001F09CFA00284ED00026002C43DD2C4B1A
:102010009B4614E0A919002001F038FB07000120BD
:102020000021404200F092FC002001F0F3FAFFF79B
:10203000B3F8234BF61918605960B4422BDD002029
:1020400001F046FBA71B0200B84200DD3A00002A5F
:10205000E0D101200021404200F078FC002001F096
:10206000D9FA002001F06AFA002814D0002001F00B
:102070002FFB0028E1D1FFF78FF85B460F001A68AD
:102080005B68002184460F4812184B419F4202D8DA
:10209000D3D19445D1D9504602F07EFAABE7012264
:1020A000094B5242A0E700200021054B18605960FF
:1020B000504602F071FA9EE740420F00CC1F00200C
:1020C0007012002020A10700FFFFFF7F30B52A4CCF
:1020D00085B00021200002F077FA00281CD1274BA0
:1020E0001A68002A16D0EFF3108172B61068002823
:1020F000FCD0BFF35F8F01242148596002781B6830
:10210000D2B20470BFF35F8F0020186081F3108893
:10211000002A17D005B030BD01200021404200F058
:1021200015FC002001F020FA0500200002F034FA2E
:10213000002DEFD0134B1B68002BEBD0124A106818
:102140009847E7E7FEF716FE0400FFF725F8FA22A6
:102150000023920012184B41002B09DB0121029150
:1021600000210191094920000091FEF707FED1E707
:102170000122074B5242F1E7CC1F0020A41E002091
:10218000EC1F00202C1A0020301A0020891E00109D
:10219000FFFFFF7FD02310B51B0684B01C68FEF73D
:1021A000E9FDFEF7E5FEA04202D0002004B010BD1C
:1021B000294B002100201B7801F07EFD2748036891
:1021C000002B41D00120FEF75BFBFF23244C254967
:1021D00020701840FEF7DCF920780121FEF7A0F905
:1021E0000520FEF7C3F9002821D1082200211E484E
:1021F000FFF700FCFEF7BEFD0400FEF7CDFFFA225C
:102200000023920012184B41002B20DB0121029188
:1022100000210191154920000091FEF7AFFD002833
:10222000C3DB13480121FFF70FFD0120BEE70120AA
:10223000FEF746F901000C48FEF788FB0022052056
:102240000C49FEF7CFF9ECE7FEF762FBBAE7012293
:10225000094B5242DAE7C046C84A0010CC1F0020A2
:10226000EB1F0020CD200010A41E0020891E0010AE
:10227000B0100020791E0010FFFFFF7F004870475C
:102280003C49001000487047E848001070B5040051
:1022900017480378002B21D0002C06D1C124154803
:1022A000154BA4004380048070BD052C1DD8134B32
:1022B0001048A400E558811C002304E001330A8083
:1022C0000231132B0ED0EA5CDCB2002AF6D1C02317
:1022D0000134E4B264009B001C43E4E7112100F0E8
:1022E00017F8D9E7CA24A400DDE70020DCE7C046E0
:1022F000D41F0020641A0020090400005049001077
:1023000010B5024800F0D8F810BDC046BC1E002031
:1023100030B54B1E012900D1A7E0664A11780D1196
:102320002C0030349F2900D9A2E00470012B00D189
:10233000BEE00F21147821400C003034092900DD63
:1023400098E04470022B00D1B2E0547825112900A6
:1023500030319F2C00D990E08170032B00D1A7E091
:102360000F2121400C003034092900DD87E0C470C2
:10237000042B00D19CE094782511290030319F2C4A
:1023800000D97FE00171052B00D191E00F212140A0
:102390000C003034092900DD76E04471062B00D1B1
:1023A00086E0D4782511290030319F2C00D96EE0C9
:1023B0008171072B00D17BE00F2121400C003034CC
:1023C000092966DCC471082B00D171E0147925114C
:1023D000290030319F2C5FD80172092B68D00F2162
:1023E00021400C003034092958DC44720A2B5FD09C
:1023F00054792511290030319F2C52D881720B2B32
:1024000056D00F2121400C00303409294BDCC47216
:102410000C2B4DD094792511290030319F2C00D9F7
:10242000073101730D2B43D00F2121400C003034B4
:10243000092901DD37310C0044730E2B38D0D179D6
:102440000C11220030329F2900D9073282730F2BE2
:102450002ED00F220A4011003731092A01DC303218
:102460001100C173102B23D010300023037030BD36
:1024700007345AE737310C0063E707316CE737312F
:102480000C0074E707317DE737310C0085E7073131
:102490008EE737310C0095E707319DE737310C00A7
:1024A000A3E70731AAE737310C00C4720C2BB1D176
:1024B000C018DAE7BC1E002030B5002589B0040042
:1024C0000922002101A80095FFF794FA09220021B2
:1024D00005A80495FFF78EFA4B236A4668461370E9
:1024E00004A90D2202F050F81521082220006944A9
:1024F000FFF786FA09B030BDF8B500F045F90C23B6
:10250000194DFF22AB6705201849FEF76BF8184CF0
:10251000402200212000FFF76DFA4027002301260A
:102520002121144A66702783A260136063545F31CF
:10253000618445396354104A10496360E26027871B
:10254000A1620B606362E26202F06EF880239B0579
:102550002E64EB6490230A4A0120EA508022094B42
:102560005202DA64F8BDC04600001150490500204F
:10257000981A002084001050000110508000105064
:1025800010D001000020115010B501210520FDF7E9
:10259000C7FF10BD10B500220021024800F014F959
:1025A00010BDC046B81A0020044B1970002904D091
:1025B00080219023024A8902D1507047E61F0020F3
:1025C000002011500B785B0602D14B78052B00D010
:1025D00070478A78014B1A60FAE7C0460000115034
:1025E000F0B5C646C87800B58007830F1800012BE8
:1025F00061D08F780C794B797F211B0239402343BE
:102600004E00FC09334D32195201AA189770012768
:102610006740577000275B055B0DD7701383D0763A
:10262000B846CA00012C32D02B4FBC468F01624401
:10263000BC46AC446746BA6047461760002932D0B2
:10264000264AC90090466246414451603F223F33CA
:102650009343022838D0224937190A687F01D318DA
:102660000B602049EF19FA608B422FD834196401AE
:102670002D19EB7E1C499B064A4013438022012002
:10268000120613436A68136080BCB846F0BD174F4A
:10269000BC468F016244BC46AC446746BA624746BA
:1026A0001760002909D1002364012D196B60104BBC
:1026B0000120EB60E8E70020E6E70B4AC9009046FE
:1026C000624641445162C1E75B00C4E7FEF772FF16
:1026D000FA68CBE7981A00208400105004001050CC
:1026E000A01E0020FF0F105000001050800010505E
:1026F0000001105010B501F097FF10BD10B57F20FC
:102700000C0020404000E409110000191A00034B9E
:102710004001C01800F058F8012010BD981A0020A0
:102720007F22130010B50B400A420BD0C90980224A
:10273000580040180649400140181201002101F0DC
:102740006BFF10BD02220348C909521A8266EEE7E8
:10275000981A0020002011507F22100010B5084068
:102760000A4200D110BD0023C909400040180449A5
:102770004001081800220349C37001F04DFFF1E742
:10278000981A0020FFF7FFFF80220A4B520410B571
:102790001A60094B09491A6010000B689843FBD175
:1027A0008022002152010648FFF724F90922054B37
:1027B0005A6710BD00E0004000F0004008C0004033
:1027C000000010500000115070B5837E04000D0011
:1027D0001600002B17D10023E38201332000A682CC
:1027E000A376256101F0E0FE002804D0802190232B
:1027F000084A8902D150200001F0BEFE002805D011
:102800000123237770BD01F0FFFEE4E7200001F013
:10281000F3FEF7E7002011507047C0467047C046EE
:1028200000207047002070477047C0467047C04680
:102830007047C0467047C046024B5878431E9841C7
:10284000C0B2704744150020024B18784007C00FF3
:102850007047C04644150020F0B546464F46D64660
:10286000C0B52F4B814698461B780E000124FF2BE4
:1028700043D1002940D0002154222A48FFF7BAF85A
:102880000022294C294B20001A70FEF741F8284BF2
:102890001C60284C20001430FEF748F8200001F09E
:1028A000F7FD254B254D1C60254B002B04D028003F
:1028B000FFF7BCFA234B18602349002400238A4603
:1028C0002A78204F10E03A68630194466344002B55
:1028D00012D05B68002B0FD098472A780134E4B2FD
:1028E000511C2300A1420EDBA242ECD89B1A5B01D3
:1028F00053445B68002BEFD100242000E0BCBA46B3
:10290000B146A846F0BD43464A46310048461A70D3
:10291000FFF7F2FD041EEFD04846FFF735FEECE767
:10292000E4100020441500203C150020E71F002083
:1029300098150020C81000209C150020E51F0020DD
:102940002D1E0010941300206C4A0010F0B5DE46D6
:1029500057464E464546E0B5C44B8BB01B78FF2B1F
:1029600000D12EE1C24BC34D9A4607AC2E68726966
:10297000EFF3108172B61368002BFCD0BFF35F8FAA
:10298000B1613000210001F0C5FB7269B369BFF38A
:102990005F8F0021116083F31088002800D110E1BF
:1029A0006378082BE2D852469B00D3589F46636851
:1029B000002BDBD0A0689847D8E77F232179AE4E63
:1029C0000B405800CA093618B618320001273032B9
:1029D0001079B843107110790337B8431071002B88
:1029E00000D1F7E0A54A337D1278934200D3E5E0A9
:1029F000A34A5B011268D318002B00D1E1E09E6965
:102A000062792078A368B047B0E79E4A1378002B1C
:102A100000D1D6E01378013BDBB213701378002BA2
:102A2000A4D10122944B01211B7893481343924A6D
:102A3000914E13703423D25C8A43C254C25C04208A
:102A40008243F2540133F25C8A43F254F25C8243D3
:102A5000F254237800209B4600F0AEFC60222379DC
:102A60001A40602A0DD0402A00D1BEE0DB06DB0E02
:102A7000012B00D10EE1022B00D1D0E0002B00D1C0
:102A8000BFE020780021FFF74BFE80212078FFF780
:102A900047FE6BE7784E3378DB0700D466E7FFF735
:102AA000C9FE63E7744BDB78DB0700D45EE7606840
:102AB000FFF7B4FE5AE7704E3378DB0700D455E7D2
:102AC00030780007C00FFFF7B3FE4FE76E496B4E3B
:102AD00023788B466A49984689463100327800232C
:102AE00046460027884611E04A4612687B01944614
:102AF0006344002B6CD0DB683000984743461A785B
:102B00000137FFB2511C3B008F4241DC9742EBD3AF
:102B10009B1A5B015B44EEE75B49584E23788B467A
:102B200057499846894631003278002346460027A7
:102B3000884611E04A4612687B0194466344002BA4
:102B400021D0DB683000984743461A780137FFB23E
:102B5000511C3B008F4205DCBA42EBD89B1A5B014B
:102B60005B44EEE7444E542200213000FEF742FF62
:102B70001022FF21301DFEF73DFF30002022FF21F3
:102B80001430FEF737FF00F00DFCFFF74FFEEDE6C7
:102B9000394E542200213000FEF72CFF1022FF2175
:102BA000301DFEF727FF30002022FF211430FEF7F2
:102BB00021FF00F0F7FB2379B370D7E6501C984251
:102BC0000EDA0BB0F0BCBB46B246A946A046F0BD3B
:102BD000294EEEE762792078A36800F001FCC5E693
:102BE0009B1A294A5B01D31809E7284800F0E4FB47
:102BF0000121584608AAFFF7FFF8002800D0B5E6E3
:102C00003FE7202A00D14EE1002A00D039E763795E
:102C1000092B00D935E71E4A9B00D3589F467023E5
:102C2000217A0B4200D02CE77F26CB0998460E4034
:102C3000114B76009B1943441F7D104B1B789F421C
:102C40005ED3581CB84200DA49E1FF1A0E4B7F01EF
:102C5000DF19002A00D146E1786900F0ADFB0121BF
:102C600058467B6908AA9847C7E7C046E410002089
:102C7000C44900109C15002044150020E51F0020C9
:102C800094130020E71F00206C4A0010F91D00106B
:102C9000E8490010237A0F2B00D9F2E6D64A944671
:102CA000D64A63441B791278934234D3511C99421B
:102CB00000DAE6E6D24E9B1A5B01F618706900F066
:102CC0007BFB01215846736908AA9847002800D069
:102CD0004CE66022160023791E401A4200D0D0E64E
:102CE00063790A3B012B00D9CBE600F065FB6379E1
:102CF0000A2B00D150E1584608A900F0DDFA35E66C
:102D0000C04B7F011B68DF19002A00D1EBE0002FC8
:102D100000D1B6E6A0E7BB4A5B011668F618002EA4
:102D200000D1AEE6CAE7B44BA7795B789F42E2D008
:102D3000B14B5B78002B00D06AE1AF4B5F70002F86
:102D400000D155E1781EC0B2FFF79CFA002800D1EF
:102D50004AE143780493022B00D045E10121C27976
:102D6000931152110B400A4012015B011343A24A16
:102D70002F3112788A4313439F4A137009239946CF
:102D8000C37882781B021343C31802939D4B81447E
:102D900098464F46029BBB4200D806E101227B7851
:102DA00000920B2B04D1FB7800933B78FF187B78C3
:102DB000042B00D018E1029BB946DB1B9BB20393A6
:102DC0008E4B1E7800231F0001931BE042461268C1
:102DD0007B01D618002E00D106E149465846039AD9
:102DE000336998470590082803D9039A824200D393
:102DF000DEE0824B01371E78FFB2731C01979F42C1
:102E000000DDF1E0BE42E1D8019B9E1B7C4B7601C8
:102E10009C466644E1E7784B06AA5B780232137061
:102E20005846012308A900F05FFA9FE5E088030AED
:102E3000C0B20F2B00D924E673499A008A589746EE
:102E400008A800F0BFFA5846A179FFF7A3FB0222B9
:102E5000694B1B781343684A137087E5E388012B9D
:102E600000D00EE60822644B1B789343624A13702D
:102E700041E70220604B197806AB9A1C8B06890843
:102E8000DB0F01400B4313805846022308A900F0D2
:102E90002BFA6BE5E388012B00D0F2E50822564BB4
:102EA0001B781343E2E7237A0F2B00D9E9E5524A56
:102EB0009446524A63441B791278934227D2514A6E
:102EC0005B011668F618002E00D1DAE5706900F093
:102ED00073FA01215846736908AA98478DE60027BE
:102EE000002A00D0CDE50222637999469343012B55
:102EF00016D04B46002B00D0C3E53F4B06AA9B19CA
:102F0000434430331B7902329B07DB0FBBE7511C74
:102F1000994200DAB5E53A4E9B1A5B01F618D5E7FF
:102F2000E388002B12D14B46012B24D0374B187865
:102F3000FFF7F6FB0221304B9B19434430331A79DB
:102F40000A4301211A711A790A431A71002F00D11C
:102F50000CE5786900F030FA7B6908AA012158462F
:102F60009847002000F028FA3523234AD35CDB077A
:102F700000D5FBE4BFE6254B1878FFF7EDFB0221F7
:102F80001D4B9B19434430331A798A4349461A71C1
:102F90001A798A431A71D9E706AB9A1C584601235D
:102FA00008A9167000F0A0F9E0E4FFF73DFCA2E6E6
:102FB0003B004F469946009B012B00D189E0009BC6
:102FC000002B75D000234E46B97805E01671013309
:102FD000009ADBB293426AD207485A188446D2B2AA
:102FE00062441079FF28F1D00023034A537048E56A
:102FF000FFF71CFC7FE6C04644150020E51F0020BB
:103000006C4A001094130020104A0010E4100020B5
:1030100000215846FFF7C8FA5846FFF76BFB454BAF
:10302000454E9B784549009389460023310032780C
:1030300088461E0011E04A461268730194466344B4
:10304000002B22D0DB685846984743461A78013651
:10305000F6B2511C33008E4207DCB242EBD89B1A09
:10306000374A5B0194466344ECE75422002131481F
:10307000FEF7C0FC2F4B1022FF21181DFEF7BAFCF3
:103080002022FF212F48FEF7B5FC2A4B009A9A70A8
:1030900053E6FEF7ADFE021E00D1F2E4D37891783C
:1030A0001B020B43584608A900F01EF9A5E5B146DE
:1030B000059E4B4632003900224800F0A1FEB4467E
:1030C0001D4B019A1B7867440133934200DB61E694
:1030D0008AE71D4B32699A4200D073E7049B009344
:1030E00070E7FFF79DFB021E00D1CAE45846137833
:1030F00008A900F0F9F880E52189FFF7C7F8021E5A
:10310000F4D1BEE4022B0FD0FFF78CFB021EC5D119
:10311000B7E4FFF7B3F8021E00D1B2E41223584619
:1031200008A900F0E1F868E5FFF7ACF8021EB5D198
:10313000A7E4C04644150020E51F0020941300209A
:103140006C4A001058150020C9370010F8B55746D2
:103150004E46DE4645460C00E0B516001F00002A2C
:103160003CD0702398461E4B00259B461D4B9A462B
:103170001AE05B461B78200099465346997800F088
:1031800003FE00281CD021004846FFF729FA00283A
:1031900016D0A378DA09012A19D00A9A01351370DA
:1031A0002378E418B54219DA6378052B08D1E3785F
:1031B0009B079B0FBB4203D14246A3781A42D8D04B
:1031C0000020F0BCBB46B246A946A046F8BD0B9A0B
:1031D000013513702378E418B542E5DB0120F0E7F0
:1031E000E410002044150020702270B58B780C008C
:1031F0001A4201D0002070BD064B20001D78064BFE
:10320000997800F0C1FD0028F4D021002800FFF7D4
:10321000E7F9F0E7E410002044150020074B080010
:1032200019687F2310B50340C0095B0034301818BB
:10323000034B181800F064FD10BDC046981500201F
:1032400044150020074B080019687F2310B5034080
:10325000C0095B0034301818034B181800F078FDD3
:1032600010BDC04698150020441500207F2070B581
:1032700008400F4C4000CD092418641930342579DA
:103280000020ED0700D570BD01262579094835439A
:1032900000782571FFF732FA0028F4D10122237952
:1032A000934323712379033293432371EBE7C046A1
:1032B00044150020E410002070B50A4E05003000CF
:1032C00008220C00FEF79CFB00237F21F36022788C
:1032D000B36091425B412800D90100220023FFF72F
:1032E000C5FF70BD24150020F8B5CE46474691466F
:1032F0002A4E80B50822070030000D009846FEF7E0
:103300007FFB4B46B3600023F381EC79A97924025B
:103310000C43231C444500D943469AB29046B381DE
:10332000002C13D0002A1FD04B46002B34D0131C86
:10333000402A1FD89BB2984633787F2B20D8002193
:10334000174A43463800FFF791FF09E07F222B78A8
:1033500038009A42644100230022E101FFF786FF12
:10336000C0BCB946B046F8BD33787F2B11D9802157
:103370000022E6E740239BB2984633787F2BDED9C4
:10338000074C424649462000FEF73AFB80212200C6
:10339000D7E700210022D4E70020E1E72415002030
:1033A000E414002010B5142200210248FEF722FB8D
:1033B00010BDC04624150020014B18617047C0465F
:1033C0002415002010B5054C010008222000FEF74E
:1033D00017FB0023A360E36010BDC0462415002046
:1033E000F8B5394C1D0023780600DA09C9098A426C
:1033F00010D00020002D00D0F8BD21003000FFF7D4
:10340000E1F82369002B42D02200032130009847C5
:103410000120F1E77F2B06D8A068002839D02A00C8
:103420002A49FEF7EDFAA368E28959195219E3888F
:1034300092B2E281A160934214D03F2D12D9A589A6
:10344000A81A071C80B240282FD82378BFB27F2B40
:103450002DD80021AA4235D01C4A3B003000FFF78E
:1034600005FFC9E72369002B05D0220002213000A7
:10347000984700280FD07F220021237830009A42FD
:10348000494100230022C901FFF7F0FEB4E7012003
:10349000B2E70020B0E700213000FFF741F930002B
:1034A0008021FFF73DF90120A6E74027CDE7AA429A
:1034B00007D0064C3A002000FEF7A2FA8021220035
:1034C000CBE780210022C8E724150020E414002067
:1034D00070B50500FFF7B0F9002800D170BDFFF707
:1034E000B3F90028FAD1C8236B43124AD618F178F1
:1034F0000029F3D010339C18200000F0F5FD3F2880
:10350000ECD90020F178FFF789FE0028E6D02000F2
:1035100000F0EAFD3F2808D9EA01074D4023F17881
:1035200052190020FFF7A2FED8E7F1780020FFF73C
:1035300089FED3E71C1400209813002010B5040066
:10354000FFF77AF9002801D1002010BDFFF77CF9C0
:103550000028F9D1C83044430248001903790120FA
:103560001840F2E71C140020C823584310B5034B41
:103570001030C01800F09AFD10BDC0461C14002089
:10358000F0B5C824C64644431E4F1F4B10340500F7
:1035900000B53C199A4200D91C4A200092B200F0B2
:1035A00009FE8046FFF748F9002803D1404680BC59
:1035B000B846F0BDFFF748F90028F7D1C8266E439A
:1035C000BE19F378002BF1D0200000F08DFD3F28CC
:1035D000ECD90020F178FFF721FE0028E6D020008A
:1035E00000F082FD3F2808D9EA01094D4023F17817
:1035F00052190020FFF73AFED8E7F1780020FFF7D4
:1036000021FED3E71C140020FEFF0000FFFF000096
:1036100098130020F8B50600FFF70EF9002801D135
:103620000020F8BDFFF710F90028F9D1C824744331
:103630002500144F2435ED19280000F037FD00282F
:10364000EED03F190020B978FFF7E8FD0028E7D059
:103650000D48F6014036361831004022280000F0AF
:10366000A9FDB978041E08D0030032000020FFF73E
:10367000FDFD0028D4D02000D3E70020FFF7E2FDB5
:10368000CEE7C0461C1400209813002070B5C82453
:1036900044430C4B2434E4180B4B05009A4200D9E8
:1036A0000A4A200092B200F03FFE0600200000F01F
:1036B000FDFC3F2801D8300070BD2800FFF7AAFFAD
:1036C000F9E7C0461C140020FEFF0000FFFF0000C9
:1036D000C823584310B5034B2430C01800F004FD34
:1036E00010BDC0461C140020F0B50025184C83B056
:1036F000C82200212000FEF77DF9164B21001D7025
:10370000FF236371E1235B02A360200008234022B2
:10371000A37338310095073B103000F08FFC270071
:103720000123210020002600402278310093B83781
:10373000243000F083FCC0363800FDF7E9F8300093
:10374000FDF7E6F8E56127622663656303B0F0BD27
:103750001C14002018140020074B1A6A196B002A49
:1037600002D00022DA611A62002902D000221A6314
:103770005A6301207047C0461C14002070B50F4CDE
:10378000052200212000FEF735F90D4D2B78DA07D0
:1037900007D50C4C9B070CD50121200000F098FEAA
:1037A00070BD2000103000F073FE2B78054C9B0795
:1037B000F2D4200000F06CFEEEE7C0461C1400209E
:1037C0001814002040140020F0B54B79060083B097
:1037D000022B02D18B79022B03D00025280003B0E5
:1037E000F0BD214FBB78002BF7D18B7809253B70BA
:1037F0000C780C196378242B0BD1082A02D80FE01F
:10380000AA420DD32378E418ED186378ADB2242BC7
:10381000F6D0052B08D0042B02D163790A2B11D0E6
:103820000020FFF755FED9E721003000FFF7DCFC50
:103830000028D2D0A3787B702378ED18E418637841
:10384000ADB2E8E7094B27780193013300930222D8
:1038500002233000E119FFF779FC0028BDD00E35B6
:10386000ED19ADB2DCE7C0461C1400201E14002088
:10387000F8B5602314001278050013400020202BB7
:1038800007D1304A6379277916781B023B439E4261
:1038900000D0F8BD6378222B28D007D8202B17D072
:1038A000212BF6D101293ED00120F2E7232BF0D1C4
:1038B000012940D00329F7D1234B002BF4D0E17824
:1038C000A37809020020194300E000BF0120E0E7CF
:1038D000012928D00329E7D11C4B002BE4D0083262
:1038E00000201100FEF7A8FA0120D2E7012922D01A
:1038F0000329D9D10125A178E4782E0024020C43B4
:1039000001211471264024321000714000F0E0FDC6
:103910000F4B002BC8D06208002031002A4000E085
:1039200000BF0120B5E7072321002800094AFFF75F
:10393000DBFC0120ADE721002800FFF7BDFC0120E2
:10394000A7E7C0461C14002000000000391E00102C
:103950000000000024140020F0B54F464646D6462D
:10396000C0B5354D8046EA780C001F008A425BD115
:103970009AB210239A46314EAA443100504600F0C4
:10398000D3FC2F4B002B17D06B79FF2B14D0002FBB
:1039900012D0F219914603E001364E450CD06B79F6
:1039A00032789A42F8D1504600F096FB0028F3D1C5
:1039B000697900E000BFEFE7224B002B04D02248DA
:1039C00000F08AFB002834D00020FFF781FDAB789F
:1039D000A34206D001242000E0BCBA46B146A84666
:1039E000F0BD1A4B002B02D0002000E000BF0020E9
:1039F000FFF710FE0028EDD1154D280000F056FB12
:103A00000028E7D1002FE5D0BB06E3D1243D404696
:103A1000A978FFF703FC041EDCD0002300224046F7
:103A2000A978FFF723FCD6E7AB788B42D9D00024E6
:103A3000D1E700E000BFC7E71C1400209813002066
:103A400000000000000000002C1400200000000016
:103A5000401400209322F0B5134C85B000212000C3
:103A60009200FDF7C7FF23002000802640270F4D5E
:103A70004D337600FF332930029500930022002356
:103A8000002103970196FF3000F0D4F94035201D46
:103A90002834002301220021039702950196009407
:103AA00000F0C8F905B0F0BDE01600206016002057
:103AB00010B5054C200000F0F3F920002538FF3840
:103AC00000F0EEF9012010BD0818002070B5084C78
:103AD0000025200031302570FF3000F0D9FC200097
:103AE0000C3000F0D5FC2A23FF33E554657170BD1E
:103AF000E0160020F8B54E464546DE465746E0B58E
:103B00004B7981468846FF2B25D12A23414FFF332D
:103B10000C78FE5C7B794444A5181E431BD1982287
:103B200052009246253AFF3A93468B78BA443B704E
:103B30000B79BB44002B0AD06378052B05D111E02B
:103B40002378E4186378052B0CD0A542F8D84346B7
:103B5000E01A80B200E00020F0BCBB46B246A946A5
:103B6000A046F8BDA542F2D921004846FFF73CFB2C
:103B70000028F0D0A3780136F6B2DB09012B2AD059
:103B8000504600F085FC2A23A278FF33FA54224ADB
:103B90006379944621791B020B435B0594215B0DED
:103BA00063445A425341022049007A5C5B008243DD
:103BB00013437B5451464846083900F0D1F9002898
:103BC000C9D02378E41843461B79B342B4D843469E
:103BD000E01A80B2C0E7584600F05AFC5A460E4937
:103BE000A3788C460C3A5371637920791B02034306
:103BF0005B055B0D634459424B41022011795B0028
:103C000081430B43594613710839002000F076F9BF
:103C1000D7E7C046E016002000FEFFFFF8B52A25D2
:103C20001F4CFF35655D06001F008D421DD19A2394
:103C30005B00E35A002B0ED11A4B002B04D000205E
:103C40001949BAB200E000BF3000184900F088F905
:103C500001242000F8BD2000962331305B00E1589C
:103C6000BAB2FF3000F060FBE6E763798B4201D027
:103C70000024EEE70E4B002B04D039040020090C81
:103C800000E000BF0B4D3000290000F037F901249F
:103C90000028DED13A002900300000F003F9D8E70F
:103CA000E016002000000000601600200818002028
:103CB00000000000E416002000B5030083B00029D6
:103CC00010D00020012B07D80A78002A04D00B4816
:103CD000C2540120012A01D003B000BD1800FEF734
:103CE000BBFDF9E7012301A900200B80FEF7B4FD1D
:103CF0000028F1D00122014B1A70EDE738150020A1
:103D0000037870B5DB0704000E00DD0F002B17D120
:103D100003785B0701D5280070BD012130004942BE
:103D200000F05AFC2378DB07DD0F002B0AD1237843
:103D30005B0708D40422237801251343237002E093
:103D40000025E8E70025300000F026FCE3E7C04648
:103D500070B50D00012104004942280000F03CFC30
:103D600023785B07DE0F002B04DB280000F014FC37
:103D7000300070BD2378DB0704D4042223789343FA
:103D80002370F2E70026F0E710B5437904791B02AF
:103D900023435B055A0DC3789B079B0F022B05D06D
:103DA000032B15D00020012B08D010BD02291CD0F8
:103DB0000020402393424041C0B2F6E702394B4213
:103DC00059410D4B9C46614491424041C0B2ECE7E1
:103DD00002394B425941F023002049429B001940CF
:103DE000403191424041C0B2DFE7044BD3185A4200
:103DF0005341D8B2D9E7C046FF03000000FEFFFFE1
:103E00008A1870B5914207D27F264C78052C04D0D1
:103E10000C7809198A42F8D870BD34008D782C408E
:103E200064000419ED0963550C7809198A42ECD82D
:103E3000F2E7C046F0B5C64600B582B0150008AA44
:103E400040CA040017880BAA1288012090460A0075
:103E500021780240814320001143217000933A00F1
:103E600001233100083000F0E9F8002E01D0002FC6
:103E700008D10A9B012063604346638002B080BC86
:103E8000B846F0BD26001C363000FCF741FD00238B
:103E9000002D01D0330000266361A661E9E7C0462A
:103EA00001207047F8B5E023070008000C785B009C
:103EB000A407E4171C4008300D0016003F3400F042
:103EC000F5F8002807D1002E05D0344203D1012493
:103ED0002B781C4201D00020F8BD38006978FFF72C
:103EE0009DF90028F7D02B781C42F4D10023002242
:103EF00038006978FFF7BAF9EEE7C046F8B50D006B
:103F00000835060028000C0000F0D0F8002803D087
:103F1000012723781F4201D00020F8BD30006178CE
:103F2000FFF77CF90028F7D028006288616800F06C
:103F300041F92378051E0BD01F42EDD103006268C2
:103F400030006178FFF792F90028E5D02800E4E717
:103F50001F42E1D130006178FFF774F9DCE7C04619
:103F6000F8B5CE46474680B58B8906000C00002B7D
:103F700008D101250B781D4241D00020C0BCB946B4
:103F8000B046F8BD0B789B0734D440235B4299467A
:103F9000402527000837380000F0A6F8A842ECD3E7
:103FA0000122237890461A42E7D130006178FFF76A
:103FB00035F90028E1D0380000F096F84246237821
:103FC000854231D81A42D8D14B4662881840051C28
:103FD00080B2904200D9151CADB200226178002D4C
:103FE00000D062682B003000FFF740F90028C4D0F1
:103FF0002800C3E78025104BAD009946C9E74978F2
:10400000FFF70CF90028B8D023781D42B5D163889A
:1040100000226178002B00D062683000FFF726F99B
:104020000028AAD06088A9E71A42A6D1300061789A
:10403000FFF708F9A1E7C04600FEFFFFF0B5C6464E
:1040400000B5040006A805788020884617001E00E9
:104050000002824227D8E068002803D001214942AB
:1040600000F0BAFA2069002803D00121494200F08B
:10407000B3FA4346236073045B0CED031D43002336
:10408000E0686381A780E5802381002801D000F0EB
:1040900083FA20690124002801D000F07DFA200075
:1040A00080BCB846F0BD0024F9E7C04610B50489CD
:1040B00041898288A3B288B28C4207D31B1A9BB273
:1040C000101C9A4200D9181C80B210BD5100091A68
:1040D0005B189BB2F4E7C046030000895B89C01AF5
:1040E00043425841C0B2704710B504894189828863
:1040F000A3B288B28C4207D31B1A9BB200209A420B
:1041000001D9D31A98B210BD5100091A5B189BB29D
:10411000F4E7C04670B5040000690E00002803D023
:104120000121494200F058FA25896089A288A9B284
:1041300083B285422CD3CD1AADB2002D2ED0AA4227
:1041400008D2914231D38B1A9BB263819A4203D831
:104150009B1A9BB29A42FBD9E28821685204520C06
:1041600053433000C918FDF74BFC618901254B1CF6
:104170009BB2A288994214D9002352009B1A9BB289
:1041800020696381002801D000F006FA280070BD84
:104190005500ED1A4D19ADB2002DD0D1002563891F
:1041A0009BB252009342EBDBE8E789188BB2638144
:1041B000CCE7C046F0B546464F46D646C0B50600E9
:1041C000006989469046002803D00121494200F049
:1041D00003FA31897289B5888BB294B2914257D370
:1041E0001F1BBFB2002F4DD0BD4205D2AB4254D2EF
:1041F0005B199CB22F0074814346B84540D89FB2EA
:10420000A54203D8641BA4B2A542FBD9F288281B9F
:104210005204530C19009846336861439C4680B29F
:104220006144874226D94346584383B21A00484620
:104230009A46FDF7E5FB434648467D1B64195C43FF
:1042400031685044A2B2FDF7DBFB7189B588CB1908
:104250009BB26A00994217D99B1A9BB2306973814D
:10426000002801D000F098F93800E0BCBA46B14609
:10427000A846F0BD424648467A43FDF7C1FBE4E755
:104280003B1CBCE773899BB26A009342E6DBE3E721
:104290006F003F1BDF19BFB2A4E75B1B9CB2A9E70D
:1042A000F8B50400C0680E00002803D0012149427F
:1042B00000F092F9258920896189A288ADB283B284
:1042C0008FB2884228D3DB1B9BB29A4209D8E77988
:1042D000FF0906D1E068002801D000F05DF9380040
:1042E000F8BD2B00954203D39B1A9BB29342FBD29D
:1042F000E28821685204520C5343C8183100FDF77C
:104300007FFBA2886B1C9BB252009D4209D99B1A6D
:104310009BB201272381DDE75100C91B5B189BB2CB
:10432000D3E79342F5DBF2E7F0B54E464546DE466D
:104330005746E0B589460500140083B0002A6ED0C8
:10434000C068002803D00121494200F045F92F89B7
:10435000EA796B89BFB29BB2D20942D1AE889F4243
:1043600067D27200D31AFB189BB2002290469E427D
:1043700031D9F31A1A1C9BB2A34200D9221C93B262
:104380009846E8884346DB199BB29B463C00BE42F8
:1043900003D8A41BA4B2B442FBD24004430C1800BF
:1043A0009A462B6860439C46311B89B26044414564
:1043B0004ED35246434649465A43FDF721FBAB884C
:1043C0005B00BB4501D39B4503DB5A46D31A9BB226
:1043D0009B465B462B81E868002822D000F0DCF881
:1043E0001FE0AA889046944226D29F4244D3414679
:1043F000FA1A92B2490012198A4209DB42469A1807
:1044000092B2171BBFB29346BB423AD97F1ABFB2D2
:10441000E3199BB246469B46A046E888B6E70023D0
:104420009846404603B0F0BCBB46B246A946A046FB
:10443000F0BDFB1A9BB298E7E888A21A4404640C0A
:1044400054434246A144002AC5D046461F0099E77E
:104450005346594389B20A0001914946FDF7D0FA03
:1044600043469A1B5346A2185A430199286892B2B0
:104470004944FDF7C5FAA2E75100CA1ABA1892B228
:10448000B9E7B942C2DD4646E888A0467EE7C046A5
:1044900010B50400C068002803D00121494200F093
:1044A0009BF82069002803D00121494200F094F8CC
:1044B0000023E06863812381002801D000F06CF8BC
:1044C0002069002801D000F067F8012010BDC04627
:1044D00070B50400C0680D00002803D001214942D6
:1044E00000F07AF82069002803D00121494200F049
:1044F00073F87F21E379ED011940E0682943E17108
:10450000002801D000F048F82069002801D000F010
:1045100043F8012070BDC04610B583070AD00300E0
:10452000032102E001330B4205D01A78002AF9D1A9
:10453000181A10BD030019680C4A0D4C8A188A43DA
:1045400022420FD15968094A04338A188A43224209
:1045500008D15968054A04338A188A432242F1D0A7
:1045600000E001331A78002AFBD1E1E7FFFEFEFEEE
:1045700080808080F8B5C04601B40248844601BC02
:10458000604700BF710C002001B40248844601BCA2
:10459000604700BF2103002001B40248844601BCEB
:1045A000604700BF3102002001B40248844601BCCC
:1045B000604700BF490C002001B40248844601BC9A
:1045C000604700BF9D0F002001B40248844601BC33
:1045D000604700BFC100002001B40248844601BC0E
:1045E000604700BFA101002001B40248844601BC1D
:1045F000604700BF0501002001B40248844601BCA9
:10460000604700BF010D002001B40248844601BC90
:10461000604700BFA50C002001B40248844601BCDD
:10462000604700BFB10C002001B40248844601BCC1
:10463000604700BFF5030020E915001015160010B3
:1046400011180010E51900107918001089190010D0
:1046500039170010311600105116001065160010A1
:10466000B90800106D160010990C0010B11500105B
:0C467000FD04001001230010FD020010EA
:10467C000A2A2A2A2050414E4943202A2A2A0A0073
:10468C000A0000004E6F207370696E6C6F636B7361
:10469C002061726520617661696C61626C650000F5
:1046AC004E6F20757365722049525173206172658B
:1046BC0020617661696C61626C65000048617264AE
:1046CC007761726520616C61726D20256420616C6C
:1046DC00726561647920636C61696D6564000000CA
:1046EC004861726420617373657274006D697373D1
:1046FC00696E6720646F75626C652066756E637495
:10470C00696F6E0052656C6561736500626F6F74E2
:10471C00325F77323571303830000000322E322E55
:10472C00300000007069636F5F7700006770696F1D
:10473C005F696E746572666163696E670000000084
:10474C004F6374203138203230323500050052501E
:10475C00DE65F468FC5A0010060052505422A29DEB
:10476C004C47001006005250861C030238470010BC
:10477C0006005250BBFF3CB63047001006005250AA
:10478C00ABB360532847001006005250E182887F7B
:10479C001847001006005250D3F075421047001015
:1047AC000D0A000000000000551D00100000000064
:1047BC00591D0010651D0010911D00108D1D00105D
:1047CC0000000000050F2100011C100500DF60DD5A
:1047DC00D88945C74C9CD2659D9E648A9F00000376
:1047EC0006A60001000000000A00000000000306FD
:1047FC00A6000800020002009C00140003005749A8
:10480C004E555342000000000000000000008000E4
:10481C000400010028004400650076006900630074
:10482C00650049006E00740065007200660061004E
:10483C0063006500470055004900440000004E002D
:10484C007B006200630037003300390038006300DE
:10485C0031002D0037003300630064002D0034005C
:10486C006300620037002D00390038006200380008
:10487C002D00390031003300610038006600630000
:10488C00610037006200660036007D000000000009
:10489C0055534220737464696E202F207374646FB7
:1048AC00757400000600525053B4F4A19C480010DB
:1048BC005261737062657272792050690000000059
:1048CC005069636F00000000426F617264204344C2
:1048DC004300000052657365740000000902540027
:1048EC00030100807D080B00020202000009040095
:1048FC00000102020004052400200105240100012E
:10490C000424020605240600010705810308001093
:10491C0009040100020A0000000705020240000021
:10492C00070582024000000904020000FF00010597
:10493C0012011002EF0201408A2E0A00000101024E
:10494C000301000000000000BC480010CC4800101F
:10495C00D41F0020D4480010E0480010556E686148
:10496C006E646C65642049525120307825780A00B9
:10497C00657020253032582077617320616C726528
:10498C0061647920617661696C61626C650000001C
:10499C0043616E277420636F6E74696E7565207841
:1049AC00666572206F6E20696E616374697665202E
:1049BC0065702025303258006C290010CC2A00106C
:1049CC00182B0010A42A0010B62A0010942A0010EC
:1049DC000A2A0010BA290010AE290010722E0010FD
:1049EC005C2E0010822A0010942E0010822A0010D7
:1049FC00402E00102C2E0010822A0010162E0010B3
:104A0C00262D0010822A00101231001004310010E3
:104A1C00F8300010822A0010822A0010E2300010B8
:104A2C0004310010822A0010822A0010822A001001
:104A3C00822A0010822A0010822A0010822A00107A
:104A4C0092300010E60D0020E60D0020C80D00206D
:104A5C003C0E00204C0F0020600F0020300E002078
:104A6C0000000000E9360010593700107D370010A7
:104A7C00C9370010713800105939001000000000BF
:104A8C0000000000553A0010B13A0010CD3A001069
:104A9C00F53A0010F91D00101D3C0010000000003C
:104AAC005847001064470010704700107C470010F6
:104ABC008847001094470010A0470010B048001021
:104ACC0003000068EFF3108C72B60268002AFCD069
:104ADC00BFF35F8F04229A56002A0BDB00290FD0FC
:104AEC0000200A601B68BFF35F8F00221A608CF3F2
:104AFC0010887047D0221206126801201A71F1E753
:104B0C000020EFE7F0B5C646150000B504001E0006
:104B1C000268EFF3108172B61368002BFCD0BFF360
:104B2C005F8F0423E356002B2DDB2268BFF35F8FCE
:104B3C000020106081F31088D0221206127852B235
:104B4C0090469A4203D1002080BCB846F0BD0027A5
:104B5C000BE02368BFF35F8F1F6081F31088280080
:104B6C00310000F02DFF0028EDD12268EFF3108109
:104B7C0072B61368002BFCD0BFF35F8F23797F2BA9
:104B8C00E7D9434602E0D0231B061B682371236838
:104B9C00BFF35F8F00221A6081F310880120D3E7E6
:104BAC00F0B5C64600B50D00040000F031FFFA2246
:104BBC0006000F00002328000021920000F010FFD7
:104BCC0036184F41002F2CDBD0231B061B68002509
:104BDC0098460BE02368BFF35F8F1D6081F310884C
:104BEC003000390000F0ECFE002818D12268EFF3F9
:104BFC00108172B61368002BFCD0BFF35F8F237942
:104C0C007F2BE7D9434623712368BFF35F8F0022C4
:104C1C001A6081F31088012080BCB846F0BD0020DA
:104C2C00FAE70126014F7642CEE7C046FFFFFF7F31
:104C3C000268EFF3108172B61368002BFCD0BFF33F
:104C4C005F8FFF2303710368BFF35F8F00221A602D
:104C5C0081F3108840BF704710B5084C2378002BA7
:104C6C000AD18023064807495B051A68C2500433F1
:104C7C008B42FAD10123237010BDC046E81F0020DF
:104C8C002C1900100001001010B5024B013398478D
:104C9C0010BDC0462C190020074B5B680360074B06
:104CAC005A6842609A688260DA68C2601A695B6905
:104CBC00026143617047C04600000240040002409C
:104CCC000268074B5A604268064B5A6082689A60C9
:104CDC00C268DA6002691A6142695A617047C0465B
:104CEC000000024004000240034B1A68C0239B00E2
:104CFC009343024A136070470C8001400C900140B2
:104D0C00054B1A6880239B005340C022920013402D
:104D1C00024A13607047C0460C8001400C90014061
:104D2C001423F0B5D6464F4646469A46C0B5814642
:104D3C001888043386B098460E001B882A49140044
:104D4C009847534607001888434628491B889847BC
:104D5C00534605001888434625491B8898478046CA
:104D6C00FFF77AFF6846FFF797FFB847A847FFF7AA
:104D7C00C7FF002C1BD0C0212200082702204905A8
:104D8C003D008B6A1D4018420BD0002C09D0131B20
:104D9C000D2B23D84B461B78013C0B6601239C46FC
:104DAC00E1442300002D10D11343002BE8D1FFF771
:104DBC009BFFC047FFF768FF6846FFF781FF06B00F
:104DCC00E0BCBA46B146A846F0BD002AEDD00B6E49
:104DDC00013A3370130001362343E6E7002DCFD0A0
:104DEC00002ACDD0F3E7C0464946000045580000E4
:104DFC004643000000231C4A10B59360D3601B4A45
:104E0C0000219360D3601A4A1A489360D3601A4AFF
:104E1C009360D360194A9360D360194A9360D3604E
:104E2C00184A9360D360184A9360D360174A936012
:104E3C00D360174A9360D360164A9360D360164AC6
:104E4C009360D360154A9360D360154A9360D36026
:104E5C00144A9360D360F022920000F0C9FD124B0B
:104E6C00124A1A6010BDC0460000105008001050C5
:104E7C0010001050D81A00201800105020001050AC
:104E8C0028001050300010503800105040001050C6
:104E9C004800105050001050580010506000105036
:104EAC006800105070001050A01E0020800110509F
:104EBC00F0B54F46D6464646C0B5204B84B09F6DE4
:104ECC00002F23D01E4B00249A46012399461D4BDC
:104EDC000126984604E001347600E4B2202C15D06B
:104EEC003E42F8D053469E654B4665086D00A34381
:104EFC00ED186D014544280000F038FC00280BD15A
:104F0C000134B743E4B27600002FE7D104B0E0BC23
:104F1C00BA46B146A846F0BDEB8AE02103930023C4
:104F2C0001A8AA78C900018001210271437100F027
:104F3C003DFC280000F0B6FBE2E7C0460000115033
:104F4C0000301150981A00209823F0B54646D646EA
:104F5C004F46CD4AC0B5D55880232C009B02102655
:104F6C0084B01C401D4273D0C84BC94C9A6AC94BC3
:104F7C0000261A603B23E35C022B00D1FEE07B236E
:104F8C00E35C022B00D11CE1BB23E35C022B00D1C0
:104F9C0005E1FB23E35C022B00D163E13C23FF33EF
:104FAC00E35C022B00D148E17C23FF33E35C022B52
:104FBC0000D12DE1BC23FF33E35C022B00D112E1C5
:104FCC00FC23FF33E35C022B00D10DE2B24BE35C1C
:104FDC00022B00D1F4E1B14BE35C022B00D1DBE1FD
:104FEC00AF4BE35C022B00D1C2E1AE4BE35C022B76
:104FFC0000D1A9E1AC4BE35C022B00D190E1AB4BAF
:10500C00E35C022B00D177E1A94BE35C022B00D1CE
:10501C005CE1A84BE35C022B00D1FAE1002E08D135
:10502C00A54B1B78002B04D18021A44A9033890214
:10503C00D150C022944B01A89B6C92005B055B0D78
:10504C00012180240280436000F0B0FB9C4EA4023E
:10505C00EB0600D586E080235B021D4237D01C4353
:10506C000023984602339946964B894E9A46B37E56
:10507C00002B17D04B4642469F1A00F091FC01289A
:10508C0000D973E0C02200213000920100F010FB27
:10509C00300000F007FB00F083FC012802D9874B9D
:1050AC005F661F660123F37043462036012B23D124
:1050BC00C02301A8DB00844A038002AB42CA42C36E
:1050CC00012100F073FB80227C4B92021A65802335
:1050DC005B011D4213D18023DB011D4226D18023AD
:1050EC001B021D4231D1AC4200D0ACE104B0E0BC9B
:1050FC00BA46B146A846F0BD01239846B7E700264C
:10510C001C43614B1E60FFF775FE80236A465B00F3
:10511C0093801672012101A800F048FB8022674B96
:10512C0012031A658023DB011D42D8D01C43802357
:10513C0001A8DB000380012100F038FB10225F4B3B
:10514C001A6580231B021D42CDD01C43A02301A84D
:10515C00DB000380012100F029FB8022574B120158
:10516C001A65C0E7FFF7A4FE340074E75346464ABD
:10517C001F66536E3B40BB42FBD183E73833E65C82
:10518C00002E00D1FBE60233E25C002A00D1F6E6E9
:10519C0000222000E254203000F0B2FAEFE6B833DF
:1051AC00E35C002B00D1F4E6BC22A15C1E000029BC
:1051BC0000D1EEE600232000A354A03000F0A0FAAA
:1051CC00E7E67833E35C002B00D1DDE67C22A15CC2
:1051DC001E00002900D1D7E600232000A354603024
:1051EC0000F08EFAD0E6B933FF33E35C002B00D12C
:1051FC00E6E6DE225200A15C1E00002900D1DFE6AB
:10520C0020000023A130A354FF3000F079FAD7E638
:10521C007933FF33E35C002B00D1CBE6BE22520086
:10522C00A15C1E00002900D1C4E6200000236130DF
:10523C00A354FF3000F064FABCE63933FF33E35C6F
:10524C00002B00D1B0E69E225200A15C1E0000296A
:10525C0000D1A9E6200000232130A354FF3000F038
:10526C004FFAA1E6F833E35C002B00D196E6FC2262
:10527C00A15C1E00002900D190E600232000A3545D
:10528C00E03000F03DFA89E6000011500040054086
:10529C00981A0020901A00203B0200007B020000AC
:1052AC00BB020000FB0200003B0300007B0300007C
:1052BC00BB030000FB030000E61F00200030115070
:1052CC00100002000020115000001050604BE35CF5
:1052DC00002B00D19DE6EF239B00E25C002A00D05E
:1052EC00A9E05C4BE35C022B00D0A2E65A4BE35CDA
:1052FC00002B00D092E09CE6584BE35C002B00D1D5
:10530C0082E6DF229200A15C1E00002900D17BE620
:10531C000023A354D8239B00E01800F0F1F973E6A6
:10532C004F4BE35C002B00D169E6CF229200A15CCD
:10533C001E00002900D162E60023A354C8239B0061
:10534C00E01800F0DDF95AE6464BE35C002B00D187
:10535C0050E6BF229200A15C1E00002900D149E654
:10536C000023A354B8239B00E01800F0C9F941E6D0
:10537C003D4BE35C002B00D137E6AF229200A15CE1
:10538C001E00002900D130E60023A354A8239B0063
:10539C00E01800F0B5F928E6344BE35C002B00D1A3
:1053AC001EE69F229200A15C1E00002900D117E688
:1053BC000023A35498239B00E01800F0A1F90FE6FA
:1053CC002B4BE35C002B00D105E68F229200A15CF5
:1053DC001E00002900D1FEE50023A35488239B0066
:1053EC00E01800F08DF9F6E5F933FF33E35C002BA0
:1053FC0000D1EBE5FE225200A15C1E00002900D179
:10540C00E4E520000023E130A354FF3000F078F9EC
:10541C00DCE5114BE35C002B00D1FFE5FF239B0087
:10542C00E25C002A00D104E60022E2541C3BE018A6
:10543C0000F066F9FDE50022E254E8239B00E01839
:10544C0000F05EF94DE721000A48694000F0B0FA1F
:10545C00BA030000FB030000FA0300007A0300000B
:10546C003A030000FA020000BA0200007A020000BF
:10547C003A02000068490010F0B5D6464F46464641
:10548C000300C0B51C8B808A8A46221C844200D93A
:10549C00021C802692B2801ADD7884B2F6009C82BF
:1054AC001643002D02D09026B601164301277D40ED
:1054BC00DD705D783000002D41D151468801D968EE
:1054CC001F698C46511E88468444002A32D061469E
:1054DC0002207C1C0C1BA042804108244445A441A2
:1054EC0040426442044238D060463843810734D18C
:1054FC00151FAD08691C89460020002461463D58E3
:10550C0001340D500430A145F8D849468D00614650
:10551C004C1941467F19481BAA4209D03D78257089
:10552C00002805D07D786570012801D0B878A0706E
:10553C001F699C8A8020BA1800021A613043002C23
:10554C0002D18023DB0118435346002B00D000040A
:10555C00E0BCBA46B146A846F0BD002061463C5CB2
:10556C000C5401308242F9D1E2E7C0468268030054
:10557C00F0B51068002900D0000C5A788005800D19
:10558C00002A08D1DA8A8218DA821A8B824201D96F
:10559C0000229A82F0BDDA688901451EAC461C696E
:1055AC00561800282ED00131511825000222611AFC
:1055BC008A428941354301322A4055426A41494267
:1055CC000A4225D06246082A22D900220021051F52
:1055DC00AD080135B7580131A75004328D42F9D8C6
:1055EC006246AD0076196419571BA84209D032786F
:1055FC002270002F05D072786270012F01D0B27822
:10560C00A2701C69DA8A24188218DA821C61BCE741
:10561C000022B15CA15401329042FAD11C69F1E72D
:10562C0010B50400836800211B68FFF79FFF6368B7
:10563C001B685B0002D5238B834200D010BD012177
:10564C002000FFF793FFF9E7084A0300126C0020D3
:10565C00920703D49A78D209012A00D07047D87ED9
:10566C00023843425841C0B2F8E7C046000011501E
:10567C0010B5FFF7E9FF00280CD00749074B8C4603
:10568C00074A9B6A126863449B1A0020C6229A42FE
:10569C004041C0B210BDC046E0FCFFFF00400540D9
:1056AC00901A002000238376436103617047C04643
:1056BC0010B58368002901D01C682140002A12D043
:1056CC008024E400114322420DD01A6822420CD1EE
:1056DC00084A0A401A60084A126C920703D40C2339
:1056EC00033BFDD28368196010BD8178034800F03C
:1056FC005FF9C046FFFBFFFF000011507C49001012
:10570C00436870B5002180251E680400FFF7B4FEC5
:10571C00134B6D011B6C05439B070FD5A3785B06E0
:10572C000FD0104B1E4080239B0533436268002131
:10573C00136020002A00FFF7BBFF70BDA378DB09C4
:10574C00EFD0A38A002BECD001212000FFF794FEB0
:10575C00A023054ADB05324005431343E6E7C04668
:10576C0000001150FFFFFFAFFFFFFFDF70B5857E1C
:10577C000400002D13D0FFF753FFA38A002B01D197
:10578C00280070BD2000FFF773FF051E03D0012316
:10579C0000252377F4E72000FFF7B2FFF0E78178CC
:1057AC00014800F005F9C0469C490010F0B5CE4602
:1057BC00474680B5437805000E0085B0062B12D8FD
:1057CC006F4A9B00D3589F4601216E4B1A788A432F
:1057DC001A701A7801318A431A7000225A701A789A
:1057EC0002318A431A70684B1C686269EFF31081AE
:1057FC0072B61368002BFCD0BFF35F8FA161200041
:10580C00290000F0E5F86269A369BFF35F8F0021FE
:10581C00116083F31088002804D105B0C0BCB946D0
:10582C00B046F0BD32006978287800F0E9F8F4E76A
:10583C00564A13780133DBB21370D4E75449554FF1
:10584C00894655490024002388463A780CE04146A5
:10585C00096863018C466344002B0AD10134E4B21D
:10586C00511C2300A14211DB9442F0D39B1A5B0123
:10587C004B44DB69002BF1D06968287898473A785B
:10588C000134E4B2511C2300A142EDDA3D4F3B78C8
:10589C005B072AD504223B7801AC934300212000FE
:1058AC0008323B7000F0A4F82B782370052363704A
:1058BC00354B1B6898465A69EFF3108172B6136822
:1058CC00002BFCD0BFF35F8F43464046996121000B
:1058DC0000F07EF843465A699B69BFF35F8F002145
:1058EC00116083F31088002844D1FB78DB0700D4C7
:1058FC0093E701AC0C220021200000F079F82B7802
:10590C002370032363706B6863601F4B1D686A69A7
:10591C00EFF3108172B61368002BFCD0BFF35F8FCE
:10592C00A9612800210000F053F86A69AB69BFF344
:10593C005F8F0021116083F31088002800D16CE781
:10594C0032006178207800F05BF866E70D4B1A782E
:10595C00D20700D461E704211A780A431A7042E78F
:10596C00084B1A78D20700D457E704211A788A43D7
:10597C001A7038E732006178207800F041F8B4E70B
:10598C00504A0010441500209C150020E71F0020F1
:10599C006C4A0010E51F0020941300207047C0468D
:1059AC0001B40248844601BC604700BF8D0300105F
:1059BC0001B40248844601BC604700BF9903001043
:1059CC0001B40248844601BC604700BF7910001046
:1059DC0001B40248844601BC604700BFA1420010DC
:1059EC0001B40248844601BC604700BF491900104D
:1059FC0001B40248844601BC604700BFF519001091
:105A0C0001B40248844601BC604700BF192800104D
:105A1C0001B40248844601BC604700BF99110010D4
:105A2C001000000000000000000001000000000059
:105A3C000000000000000200000000000000000058
:105A4C000000030000000000000000000000FF0048
:105A5C000000000001B5486801318E4600477046D1
:105A6C0009380149884701BDCD070010000000002E
:105A7C00000000000000000000000000000000001A
:105A8C00F0100020000000000000000000000000EA
:105A9C00503300004C3300005433000052330000EC
:105AAC004D5300004D4300005334000043340000BC
:105ABC00CD1F00107D1F0010ED1E0010651E001084
:105ACC000000000000010000A015002010000C00D8
